:100000000C948F000C94B7000C94B7000C94B700BC
:100010000C94B7000C94B7000C94B7000C94B70084
:100020000C94B7000C94B7000C94B7000C94B70074
:100030000C94B7000C94B7000C94B7000C94B70064
:100040000C9496030C94B7000C9464030C943E0338
:100050000C94B7000C94B7000C94B7000C94B70044
:100060000C94E0050C94B7000000000800020100A9
:1000700000030407000000000000000053656E73D9
:100080006F72206661696C656420746F20696E69A7
:100090007469616C697A650053656E736F7220696B
:1000A0006E697469616C697A6564004C75783A00B0
:1000B0005669733A004C434420696E697469616CF7
:1000C000697A65640053657269616C20696E697450
:1000D00069616C697A6564002535640025356400C2
:1000E00000000000250028002B0000000000240074
:1000F00027002A0004040404040404040202020287
:1001000002020303030303030102040810204080DA
:10011000010204081020010204081020680C1124B8
:100120001FBECFEFD8E0DEBFCDBF11E0A0E0B1E051
:10013000ECE0F0E202C005900D92A433B107D9F7CC
:1001400022E0A4E3B1E001C01D92A13CB207E1F7B7
:1001500010E0CFE8D0E004C02197FE010E94EA0F32
:10016000CE38D107C9F70E9434090C9404100C94BE
:100170000000CF92DF92EF92FF920F931F93CF93E5
:10018000DF936C017A018B01C0E0D0E0CE15DF0572
:1001900089F0D8016D918D01D601ED91FC9101900E
:1001A000F081E02DC6010995892B11F47E0102C072
:1001B0002196ECCFC701DF91CF911F910F91FF9056
:1001C000EF90DF90CF900895FC01918D828D98176C
:1001D00061F0828DDF01A80FB11D5D968C91928D2B
:1001E0009F5F9F73928F90E008958FEF9FEF089528
:1001F000FC01918D828D981731F0828DE80FF11DF1
:10020000858D90E008958FEF9FEF0895FC01918D0B
:10021000228D892F90E0805C9F4F821B91098F7304
:100220009927089587EF91E00E94060121E0892B2C
:1002300009F420E0822F0895FC01848DDF01A80FCE
:10024000B11DA35ABF4F2C91848D90E001968F73FE
:100250009927848FA689B7892C93A089B1898C911D
:1002600080648C93938D848D981306C00288F389E3
:10027000E02D80818F7D80830895EF92FF920F9310
:100280001F93CF93DF93EC0181E0888F9B8D8C8D42
:10029000981305C0E889F989808185FD24C0F62E70
:1002A0000B8D10E00F5F1F4F0F731127E02E8C8D09
:1002B000E8120CC00FB607FCFACFE889F9898081F3
:1002C00085FFF5CFCE010E941C01F1CF8B8DFE0181
:1002D000E80FF11DE35AFF4FF0820B8FEA89FB898B
:1002E0008081806207C0EE89FF896083E889F9898F
:1002F00080818064808381E090E0DF91CF911F91C5
:100300000F91FF90EF900895CF93DF93EC01888DCC
:100310008823C9F0EA89FB89808185FD05C0A88909
:10032000B9898C9186FD0FC00FB607FCF5CF80818F
:1003300085FFF2CFA889B9898C9185FFEDCFCE01D9
:100340000E941C01E7CFDF91CF91089580E090E0FB
:10035000892B29F00E94120181110C94000008954C
:1003600090E0FC01E859FF4F3491FC01E85FFE4F3B
:100370002491FC01EC50FF4FE491EE2309F43BC0C3
:10038000332339F1333091F038F43130A9F0323081
:1003900001F584B58F7D12C0373091F03830A1F06F
:1003A0003430B9F4809180008F7D03C0809180004B
:1003B0008F77809380000DC084B58F7784BD09C08E
:1003C0008091B0008F7703C08091B0008F7D8093C3
:1003D000B000F0E0EE0FFF1FE052FF4FA591B49187
:1003E0008FB7F894EC91611103C020952E2301C0C2
:1003F0002E2B2C938FBF08953FB7F89480918001E6
:1004000090918101A0918201B091830126B5A89BB2
:1004100005C02F3F19F00196A11DB11D3FBFBA2F96
:10042000A92F982F8827820F911DA11DB11DBC01F6
:10043000CD0142E0660F771F881F991F4A95D1F7BB
:1004400008958F929F92AF92BF92CF92DF92EF92D8
:10045000FF926B017C010E94FC014B015C01C11405
:10046000D104E104F104F1F00E94FC01DC01CB01B4
:1004700088199909AA09BB09883E9340A105B105CD
:1004800070F321E0C21AD108E108F10888EE880E65
:1004900083E0981EA11CB11CC114D104E104F10435
:1004A00019F7DDCFFF90EF90DF90CF90BF90AF9026
:1004B0009F908F90089585ED8093BC008091BC0043
:1004C00084FDFCCF1092D201089540915601262F51
:1004D00030E0240F311D21323105DCF42091D201AE
:1004E0002430C9F4FC0180E090E0861758F4309184
:1004F00056012191DC01AC5CBE4FA30FB11D2C93C2
:100500000196F3CF80915601680F6093560180E009
:10051000089581E0089582E008950895E0918B01A7
:1005200080918A01E81730F4F0E0E457FE4F8081B3
:1005300090E008958FEF9FEF089590918B01809147
:100540008A01981750F4E92FF0E0E457FE4F20811C
:1005500030E09F5F90938B0102C02FEF3FEFC90106
:10056000089580918A0190E020918B01821B91096E
:100570000895CF92DF92EF92FF920F931F93CF9344
:10058000DF937C01262F972F8A018091D301882346
:1005900091F0C62FD72F6E01C40ED51ECC15DD05E8
:1005A00071F06991D701ED91FC910190F081E02DFE
:1005B000C7010995F3CF642F822F0E946502C801FD
:1005C000DF91CF911F910F91FF90EF90DF90CF902F
:1005D0000895CF93DF931F92CDB7DEB76983209143
:1005E000D3012223D1F02091F601203240F021E006
:1005F00030E0FC013383228380E090E015C08091DD
:10060000D401E82FF0E0EB52FE4F998190838F5F89
:100610008093D4018093F60105C061E0CE0101967C
:100620000E94650281E090E00F90DF91CF910895E4
:100630000E94FF0FEF92FF920F931F93CF93DF93D0
:100640008C017B01C0E0D0E0F701EC0FFD1F64914D
:10065000662361F0D801ED91FC910190F081E02DCD
:10066000C8010995892B11F02196EECFCE01DF91BB
:10067000CF911F910F91FF90EF9008951F920F92CD
:100680000FB60F9211242F933F934F935F936F9365
:100690007F938F939F93AF93BF93EF93FF9387EFD6
:1006A00091E00E941C01FF91EF91BF91AF919F914A
:1006B0008F917F916F915F914F913F912F910F900B
:1006C0000FBE0F901F9018951F920F920FB60F92AA
:1006D00011242F938F939F93EF93FF93E091070241
:1006E000F09108028081E0910D02F0910E0282FDEE
:1006F00012C09081809110028F5F8F732091110240
:10070000821751F0E0911002F0E0E950FE4F958F12
:100710008093100201C08081FF91EF919F918F9192
:100720002F910F900FBE0F901F9018951F920F9250
:100730000FB60F9211242F933F938F939F93AF93F4
:10074000BF9380917C0190917D01A0917E01B09139
:100750007F0130917B0123E0230F2D3720F4019698
:10076000A11DB11D05C026E8230F0296A11DB11DD4
:1007700020937B0180937C0190937D01A0937E0167
:10078000B0937F018091800190918101A0918201BD
:10079000B09183010196A11DB11D809380019093BA
:1007A0008101A0938201B0938301BF91AF919F918A
:1007B0008F913F912F910F900FBE0F901F90189522
:1007C000CF93DF931F92CDB7DEB7FC0180818062AB
:1007D00091E09093D3018093F5011092D40110928F
:1007E000F60184E992E049830E94E9024981642F7D
:1007F00084E992E00E94E9020F90DF91CF910C947E
:100800002C07CF93DF93EC019881906281E0809375
:10081000D3019093F5011092D4011092F60184E96E
:1008200092E00E94E9020E942C078881806261E0C8
:1008300070E090E00E94A30784E992E00E949D028C
:10084000DF91CF910895AF92BF92CF92DF92EF9256
:10085000FF920F931F93CF93DF931F92CDB7DEB715
:100860005C01162FFC01818D8F3F71F1683008F01B
:100870007BC07501FAE1EF0EF11C69E0C701498305
:100880000E9401044981413041F441E050E001C03F
:10089000440F1A95EAF7482B08C041E050E001C028
:1008A000440F1A95EAF74095482369E0C7010F9075
:1008B000DF91CF911F910F91FF90EF90DF90CF903C
:1008C000BF90AF900C94E003F50185898F3F09F448
:1008D0003CC0508D21E030E0413039F401C0220F9E
:1008E0006A95EAF7252B208F09C0C90101C0880F3E
:1008F0006A95EAF780958523F501808F60E0F50120
:1009000087890E94B001F501E08CD588C68807E090
:1009100010E0F12CB701002E02C0759567950A947E
:10092000E2F7617077278C2D0E94B00161E08D2D78
:100930000E94B00160E08D2D0E94B00101501109AC
:1009400048F761E0F501878902C0642F812F0F907D
:10095000DF91CF911F910F91FF90EF90DF90CF909B
:10096000BF90AF900C94B0010F90DF91CF911F9189
:100970000F91FF90EF90DF90CF90BF90AF900895D0
:10098000CF93DF93EC0140E06E810E94230441E0AD
:100990006E81CE010E94230440E06E81CE010E9450
:1009A00023048BE891E00197F1F7DF91CF9108954F
:1009B000AF92BF92CF92DF92EF92FF920F931F936D
:1009C000CF93DF93EC01898D8E01095F1F4FC62EF7
:1009D000D12C8F3F09F464C05E018AE1A80EB11CDE
:1009E00069E0C5010E940104D80160E070E0E1E027
:1009F000F0E09D91EE24E394F12C9F01092E01C0BB
:100A0000220F0A94EAF7209582239601062E02C04F
:100A1000359527950A94E2F72170332701C0220FFC
:100A20009A95EAF7822B6F5F7F4F6430710509F763
:100A300097010E8002C0220F331F0A94E2F720951F
:100A4000182F1223412F69E0C5010E94E003A7017E
:100A50000E8002C0440F551F0A94E2F7142B412F59
:100A600069E0C5010E94E0030E8002C0EE0CFF1C8D
:100A70000A94E2F7E094412F4E2169E0C5010E94FB
:100A8000E0038BE891E00197F1F7DF91CF911F919F
:100A90000F91FF90EF90DF90CF90BF90AF900895AF
:100AA000E12CF12C5801F80161918F01CE010E94D7
:100AB000B308A6010E2C02C0559547950A94E2F79B
:100AC0004170F5016081CE010E942304FFEFEF1A0F
:100AD000FF0A84E0E816F10429F7CE01DF91CF91F7
:100AE0001F910F91FF90EF90DF90CF90BF90AF904C
:100AF0000C94C004AF92BF92CF92DF92EF92FF921C
:100B00000F931F93CF93DF93EC01F62E6C810E941D
:100B100023046D816F3F21F040E0CE010E94230449
:100B20008F850F2D10E084FF2EC06E0187E0C80E68
:100B3000D11CE12CF12C5601F60161916F01CE011F
:100B40000E94B308A8010E2C02C0559547950A943F
:100B5000E2F74170F5016081CE010E942304FFEFAE
:100B6000EF1AFF0A88E0E816F10429F7CE01DF91B9
:100B7000CF911F910F91FF90EF90DF90CF90BF909A
:100B8000AF900C94C004B80184E0759567958A9580
:100B9000E1F7CE010E94D8046F2DCE01DF91CF91F5
:100BA0001F910F91FF90EF90DF90CF90BF90AF908B
:100BB0000C94D80441E00E947A0581E090E0089509
:100BC0001F920F920FB60F9211242F933F934F93C2
:100BD0005F936F937F938F939F93AF93BF93EF93A5
:100BE000FF938091B900887F803609F49CC068F536
:100BF000883209F45BC090F4803109F454C038F4B1
:100C0000882309F4F6C0883009F44DC0F6C0883155
:100C100009F44CC0803209F45DC0EFC0803409F49F
:100C200068C048F4803309F455C0883309F0E5C042
:100C30008093D001D8C0803509F44FC0883509F4BD
:100C40005DC0883409F0D9C0D6C0883909F4C7C05E
:100C5000A8F4883709F467C038F4883609F463C00B
:100C6000803709F460C0C9C0883809F4B8C0803939
:100C700009F45FC0803809F0C0C05BC0803B09F454
:100C800086C038F4803A09F466C0883A09F47FC017
:100C9000B4C0803C09F4A7C0883C09F4A4C0883BD8
:100CA00009F48AC0AAC08091AD0110C09091CF0113
:100CB0008091CE01981770F5E091CF0181E08E0F01
:100CC0008093CF01F0E0E255FE4F80818093BB001E
:100CD00085EC86C08093D0018EC0E091CF0181E089
:100CE0008E0F8093CF018091BB00F0E0E255FE4F64
:100CF00080839091CF018091CE016EC0E091CF01B1
:100D000081E08E0F8093CF018091BB00F0E0E2552F
:100D1000FE4F80838091D10181116DC081E080936D
:100D2000AC0184EA61C083E08093D20110927A0121
:100D3000CFCF80917A01803208F051C0E0917A01E2
:100D400081E08E0F80937A018091BB00F0E0E65A3B
:100D5000FE4F8083BDCF85EC8093BC001092D20102
:100D600080917A01803230F4E0917A01F0E0E65A25
:100D7000FE4F108260917A0170E0E0915801F0918D
:100D800059018AE591E0099510927A0136C084E014
:100D90008093D2011092570110925601E0915401B4
:100DA000F0915501099580915601811105C081E0AE
:100DB0008093560110923401E091570181E08E0F2B
:100DC00080935701F0E0EC5CFE4F80818093BB0084
:100DD0009091570180915601981708F479CF85E8D2
:100DE0008093BC000AC085EC8093BC001092D201B5
:100DF00004C01092D0010E945B02FF91EF91BF915D
:100E0000AF919F918F917F916F915F914F913F91A2
:100E10002F910F900FBE0F901F9018951092D20136
:100E200081E08093D1011092AC0161E082E10E94E7
:100E3000B00161E083E10E94B001E9EBF0E0808164
:100E40008E7F808380818D7F808388E48093B8004B
:100E500085E48093BC0008952091F6019091F501FE
:100E6000213208F04AC08091D2018111FCCF32E0DA
:100E70003093D20131E03093D1013FEF3093D00174
:100E80001092CF012093CE01A5EDB1E04EEA51E0E2
:100E9000FA013E2F341B321718F43D913193F9CFEC
:100EA0001092AD012091AD01990F922B9093AD015D
:100EB0009091AC01913061F41092AC019091AD0130
:100EC0009093BB009091BC0093FDF8CF95EC01C0CE
:100ED00095EE9093BC009091D2019230E1F3909105
:100EE000D0019F3F79F08091D001803241F0809114
:100EF000D001803331F084E005C081E003C082E09E
:100F000001C083E01092D4011092F6011092D30137
:100F10000895CF93C62F9091A00221E02093D30192
:100F20009093F5011092D4011092F601682F84E994
:100F300092E00E94E9026C2F84E992E00E94E902AB
:100F4000CF910C942C079091D2019111FCCF61327A
:100F500008F060E291E09093D2019093D1012FEFDD
:100F60002093D0011092CF01260F2093CE019093B1
:100F7000AD019091AD01880F892B8093AD018091D7
:100F8000AC01813061F41092AC018091AD0180938D
:100F9000BB008091BC0083FDF8CF85EC01C085EEDD
:100FA0008093BC008091D2018130E1F38091CF0128
:100FB000861710F46091CF01AEEAB1E02CE831E081
:100FC000F9018E2F821B861718F48D918193F9CF2A
:100FD00010928B0160938A01862F08958091A5025B
:100FE000811102C00E94F80760E080E80C94890734
:100FF000CF93DF9310928B0110928A011092D4014B
:101000001092F6010E940E078091A002C1E0C093E9
:10101000D3018093F5016AE084E992E00E94E9023D
:101020000E942C078091A00261E070E0082E000C65
:10103000990B0E94A30784E992E00E949D028A70A6
:101040009927892BF1F0C093A502C091A102D091FC
:10105000A2020E944508C093A102D093A20260910F
:10106000A3026C2B81E80E9489070E94EE07809101
:10107000A3029091A4020E944F080E94EE0781E013
:1010800001C080E0DF91CF9108958091A502811188
:1010900002C00E94F80763E080E80C948907CF93B0
:1010A000DF93EC018091A502811102C00E94F80734
:1010B0000E944508C093A302D093A4026091A102AC
:1010C0006C2B81E80E948907DF91CF910C94EE0789
:1010D000CF93DF93BC0187EF91E00E941A03EC01EC
:1010E00042E050E060E371E087EF91E00E94B900D8
:1010F0008C0F9D1FDF91CF91089590E0FC01E85F78
:10110000FE4F2491FC01EC50FF4F8491882399F00D
:1011100090E0880F991FFC01E651FF4FA591B49113
:10112000FC01E052FF4F859194918FB7F894EC91B8
:10113000E22BEC938FBF08951F93CF93DF93EC01C5
:10114000162F60E00E94010441E050E001C0440F0E
:101150001A95EAF74095482360E0CE01DF91CF91E0
:101160001F910C94E003FC01218D2F3F29F0683082
:1011700050F44A960C949C08FC0185898F3F19F421
:10118000862F0C947D08089540E0682F86EA92E04F
:101190000C947A05CF93DF93CDB7DEB728970FB6BF
:1011A000F894DEBF0FBECDBF98E0E0E0F1E0DE01D5
:1011B000119601900D929A95E1F79091B9029617C8
:1011C00010F46FEF690FFE013196E60FF11DE60F87
:1011D000F11D9081890F806828960FB6F894DEBFC4
:1011E0000FBECDBFDF91CF910C94C408E4E8F1E0CD
:1011F00001900020E9F73197AF014458514064E86D
:1012000071E086EA92E00C94B900CF93DF93C0EAD4
:10121000D2E0988121E02093D3019093F5011092C0
:10122000D4011092F601682F84E992E00E94E9024D
:101230000E942C07888162E070E0082E000C990B58
:101240000E94A30784E992E00E949D02EC0184E9D8
:1012500092E00E949D0220E030E0382FC9018C2BE3
:101260009D2BDF91CF910895789484B5826084BDE1
:1012700084B5816084BD85B5826085BD85B581609A
:1012800085BD80916E00816080936E001092810018
:1012900080918100826080938100809181008160D3
:1012A0008093810080918000816080938000809194
:1012B000B10084608093B1008091B0008160809320
:1012C000B00080917A00846080937A0080917A00E7
:1012D000826080937A0080917A00816080937A00A6
:1012E00080917A00806880937A001092C100E0912A
:1012F0000702F091080282E08083E0910302F091FE
:1013000004021082E0910502F09106028FEC8083C6
:1013100010920F02E0910B02F0910C0286E08083A4
:10132000E0910902F0910A02808180618083E0915E
:101330000902F0910A02808188608083E0910902AD
:10134000F0910A02808180688083E0910902F09127
:101350000A0280818F7D808385EC90E00E9468087E
:101360008091BF028F3F09F47FC087708093C002D5
:1013700010928B0110928A011092D4011092F60102
:101380000E940E078091C002806291E09093D30189
:101390008093F5011092D4011092F60160E084E987
:1013A00092E00E94E9026FEF84E992E00E94E90274
:1013B00060E084E992E00E94E90260E084E992E062
:1013C0000E94E90260E084E992E00E94E90260E0A4
:1013D00084E992E00E94E90260E084E992E00E94E0
:1013E000E90260E084E992E00E94E90260E084E9B9
:1013F00092E00E94E90260E084E992E00E94E90242
:1014000060E084E992E00E94E9020E942C0767E014
:1014100080EC92E00E949C0869E080EC92E00E94DF
:101420000104482F406869E080EC92E00E94E003EC
:10143000CDEAD2E01C2F1C5F699186EA92E00E94FF
:10144000B3081C13F9CF6091AA02683020F480EC35
:1014500092E00E949C086091AC02683038F580EC04
:1014600092E00E949C0822C08091BB028F3F81F0D5
:101470008091BC020E947D088091BB020E947D0881
:101480008091BD020E947D0880E88093BE020EC05C
:101490008091AA020E947D088091AB028F3F11F0DB
:1014A0000E947D088091AC020E947D088091B50267
:1014B00088608093B50282E08093B9021092BA02EC
:1014C0008BE39DE00197F1F740E06091AA0286EA84
:1014D00092E00E94230440E06091AC0286EA92E030
:1014E0000E9423046091AB026F3F29F040E086EA3E
:1014F00092E00E9423048091B50284FD20C063E045
:1015000086EA92E00E94D804CBE4D6E4CE010197AB
:10151000F1F763E086EA92E00E94D8042197F1F7A0
:1015200063E086EA92E00E94D80483E592E00197A6
:10153000F1F762E086EA92E00E94D80415C080626A
:101540000E94C4088BE496E40197F1F78091B502FC
:1015500080620E94C40883E592E00197F1F78091D0
:10156000B50280620E94C4088091B50280620E9428
:10157000C40884E08093B6028CE00E94C40881E035
:101580000E94C4088BE39FE10197F1F782E080930A
:10159000B70286E00E94C40885EB90E00E946808CC
:1015A0008091BF028F3F21F48091BB028F3F31F0C9
:1015B00041E067E086EA92E00E94230460E080E078
:1015C0000E94CA0860EB70E086EA92E00E941A036B
:1015D00061E080E00E94CA086BEA70E086EA92E06F
:1015E0000E941A030E94F807882319F088E990E006
:1015F00002C08CE790E00E94680880E090E00E94C2
:101600004F0880E190E00E944F088091A50281116F
:1016100002C00E94F8070E94450882E090E0909383
:10162000A2028093A1026091A302626081E80E94FD
:1016300089070E94EE070CED10E0C4E8D1E080912C
:10164000A502811102C00E94F8070E9445088091FE
:10165000A1029091A202009739F0019751F466E639
:1016600070E080E090E009C06EE070E080E090E023
:1016700004C063E971E080E090E00E9421028EEAFC
:101680000E9405096C01E12CF12C8CEA0E940509ED
:101690007601DD24CC24A0E0B0E0C82AD92AEA2AC9
:1016A000FB2A0E94EE0727016624772460E085E08C
:1016B0000E94CA08C601841995099F938F931F93AE
:1016C0000F931F9286E08F93DF93CF930E94C80CF5
:1016D0000E94F60861E085E00E94CA088DB79EB7B7
:1016E00008960FB6F8949EBF0FBE8DBF8091A102E1
:1016F0009091A202009779F0019739F4B7EE8B2E02
:10170000BFE09B2EA12CB12C0CC0812CA4E09A2E02
:10171000A12CB12C06C0F7E18F2EF5E79F2EA12C4E
:10172000B12C8091A3029091A402892B39F4E4E0BA
:10173000880C991CAA1CBB1CEA95D1F7C701B601FD
:1017400088279927A50194010E94AD0F6B017C01A8
:101750006AE0F694E794D794C7946A95D1F7C301E9
:10176000B2010E94AD0F4B015C017AE0B694A794E0
:10177000979487947A95D1F7C114D104E104F104C8
:1017800071F0C501B4014AE0660F771F881F991FE9
:101790004A95D1F7A70196010E94BD0F03C020E032
:1017A00030E0A901DA01C9010196A11DB11DB6956C
:1017B000A7959795879581349105A105B10530F1DD
:1017C00081389105A105B10530F1813C9105A10554
:1017D000B10530F1813021E09207A105B10528F172
:1017E000893331E09307A105B10520F18B3941E040
:1017F0009407A105B10518F18B399240A105B105F7
:1018000018F1E0E0F0E0A0E0B0E022C0EEEBF1E0A3
:10181000A2EFB1E01DC0E1EDF2E0A4E1B2E018C03A
:10182000EBE7F3E0AFE3B2E013C0EEEFF3E0A0E7E5
:10183000B2E00EC0ECEFF1E0AFE6B1E009C0EBEFD3
:10184000F0E0A2EDB0E004C0E2E1F0E0A8E1B0E039
:10185000A70196010E94DF0F6B017C0120E2D20EEE
:10186000E11CF11CDF01A50194010E94DF0FA7011B
:101870009601261B370B480B590BDA01C9012EE0E4
:10188000B695A795979587952A95D1F7BF93AF936E
:101890009F938F9388ED90E09F938F931F9286E0A4
:1018A0008F93DF93CF930E94C80C0E94F60864EFD9
:1018B00071E080E090E00E9421028DB79EB70A9609
:1018C0000FB6F8949EBF0FBE8DBF0E94A601B7CE83
:1018D000E7EFF1E01382128288EE93E0A0E0B0E03F
:1018E00084839583A683B7832CE031E03183208302
:1018F00025EC30E03587248724EC30E037872687D5
:1019000020EC30E0318B208B21EC30E0338B228BCC
:1019100022EC30E0358B248B26EC30E0378B268BA5
:10192000118E128E138E148EE4E9F2E0138212826D
:1019300084839583A683B7838CE191E09183808330
:10194000E6EAF2E0138212828CE291E091838083D6
:101950008FEF818F178691E09483858392E0968341
:1019600086E0878385E0808784E0818723E0228783
:10197000268B958B878B108EE0EAF2E089E38083DB
:1019800015821282118280E190E09483838308950E
:10199000AEE0B0E0EEECFCE00C94840F0D891E8903
:1019A0008F89988D2EE02C831A83098397FF02C0BC
:1019B00080E090E801979E838D83AE01455E5F4F86
:1019C000698D7A8DCE0101960E94F80C4D815E8161
:1019D00057FD0AC02F813885421753070CF49A012E
:1019E000F801E20FF31F10822E96E4E00C94A00F92
:1019F000ACE0B0E0EEEFFCE00C94760F7C016B0104
:101A00008A01FC0117821682838181FFBDC1CE014C
:101A100001964C01F7019381F60193FD859193FFA7
:101A200081916F01882309F4ABC1853239F493FDAC
:101A3000859193FF81916F01853229F4B70190E080
:101A40000E94E00EE7CF512C312C20E02032A0F490
:101A50008B3269F030F4803259F0833269F42061BE
:101A60002CC08D3239F0803339F4216026C02260D9
:101A7000246023C0286021C027FD27C030ED380F27
:101A80003A3078F426FF06C0FAE05F9E300D11244C
:101A9000532E13C08AE0389E300D1124332E20625D
:101AA0000CC08E3221F426FD6BC1206406C08C363A
:101AB00011F4206802C0883641F4F60193FD859147
:101AC00093FF81916F018111C1CF982F9F7D955414
:101AD000933028F40C5F1F4FFFE3F9830DC083366A
:101AE00031F0833771F0833509F05BC022C0F80113
:101AF000808189830E5F1F4F44244394512C5401ED
:101B000015C03801F2E06F0E711CF801A080B180A1
:101B100026FF03C0652D70E002C06FEF7FEFC501A7
:101B20002C870E94D50E2C0183012C852F77222E25
:101B300017C03801F2E06F0E711CF801A080B1806F
:101B400026FF03C0652D70E002C06FEF7FEFC50177
:101B50002C870E94CA0E2C012C852068222E83011E
:101B600023FC1BC0832D90E048165906B0F4B70142
:101B700080E290E00E94E00E3A94F4CFF50127FC59
:101B8000859127FE81915F01B70190E00E94E00EF0
:101B900031103A94F1E04F1A51084114510471F791
:101BA000E5C0843611F0893639F5F80127FF07C002
:101BB00060817181828193810C5F1F4F08C06081B9
:101BC0007181072E000C880B990B0E5F1F4F2F762B
:101BD000722E97FF09C090958095709561957F4F03
:101BE0008F4F9F4F2068722E2AE030E0A4010E94A0
:101BF000180FA82EA81844C0853729F42F7EB22EBE
:101C00002AE030E025C0F22FF97FBF2E8F36C1F0D9
:101C100018F4883579F0B4C0803719F0883721F08E
:101C2000AFC02F2F2061B22EB4FE0DC08B2D84606B
:101C3000B82E09C024FF0AC09F2F9660B92E06C097
:101C400028E030E005C020E130E002C020E132E0D1
:101C5000F801B7FE07C060817181828193810C5FBA
:101C60001F4F06C06081718180E090E00E5F1F4FC2
:101C7000A4010E94180FA82EA818FB2DFF777F2E15
:101C800076FE0BC0372D3E7FA51450F474FE0AC0BB
:101C900072FC08C0372D3E7E05C0BA2C372D03C01C
:101CA000BA2C01C0B52C34FF0DC0FE01EA0DF11DA8
:101CB0008081803311F4397E09C032FF06C0B394AD
:101CC000B39404C0832F867809F0B39433FD13C016
:101CD00030FF06C05A2CB31418F4530C5B18B32C05
:101CE000B31468F4B70180E290E03C870E94E00EF4
:101CF000B3943C85F5CFB31410F43B1801C0312CDC
:101D000034FF12C0B70180E390E03C870E94E00EF0
:101D10003C8532FF17C031FD03C088E790E002C068
:101D200088E590E0B7010CC0832F867859F031FF29
:101D300002C08BE201C080E237FD8DE2B70190E086
:101D40000E94E00EA51438F4B70180E390E00E94F1
:101D5000E00E5A94F7CFAA94F401EA0DF11D8081A8
:101D6000B70190E00E94E00EA110F5CF332009F4F6
:101D700051CEB70180E290E00E94E00E3A94F6CF97
:101D8000F7018681978102C08FEF9FEF2C96E2E1E9
:101D90000C94920FFC010590615070400110D8F72F
:101DA000809590958E0F9F1F0895FC0161507040A3
:101DB00001900110D8F7809590958E0F9F1F089580
:101DC0000F931F93CF93DF93FB01238121FD03C06A
:101DD0008FEF9FEF28C022FF16C0468157812481D4
:101DE00035814217530744F4A081B1819D012F5FD3
:101DF0003F4F318320838C93268137812F5F3F4F64
:101E00003783268310C0EB01092F182F0084F1853A
:101E1000E02D0995892BE1F68E819F8101969F83A4
:101E20008E83812F902FDF91CF911F910F91089575
:101E3000FA01AA27283051F1203181F1E8946F93FB
:101E40006E7F6E5F7F4F8F4F9F4FAF4FB1E03ED0A1
:101E5000B4E03CD0670F781F891F9A1FA11D680F3F
:101E6000791F8A1F911DA11D6A0F711D811D911D72
:101E7000A11D20D009F468943F912AE0269F1124E7
:101E80003019305D3193DEF6CF010895462F47704B
:101E9000405D4193B3E00FD0C9F7F6CF462F4F70A6
:101EA000405D4A3318F0495D31FD4052419302D004
:101EB000A9F7EACFB4E0A6959795879577956795AA
:101EC000BA95C9F700976105710508959B01AC01AA
:101ED0000A2E06945795479537952795BA95C9F7D1
:101EE000620F731F841F951FA01D08952F923F92AC
:101EF0004F925F926F927F928F929F92AF92BF921A
:101F0000CF92DF92EF92FF920F931F93CF93DF93C5
:101F1000CDB7DEB7CA1BDB0B0FB6F894DEBF0FBE22
:101F2000CDBF09942A88398848885F846E847D846F
:101F30008C849B84AA84B984C884DF80EE80FD8071
:101F40000C811B81AA81B981CE0FD11D0FB6F894E7
:101F5000DEBF0FBECDBFED010895DB018F939F93D0
:101F60000E94DF0FBF91AF91A29F800D911DA39F93
:101F7000900DB29F900D11240895A1E21A2EAA1B74
:101F8000BB1BFD010DC0AA1FBB1FEE1FFF1FA21729
:101F9000B307E407F50720F0A21BB30BE40BF50B26
:101FA000661F771F881F991F1A9469F760957095AF
:101FB000809590959B01AC01BD01CF0108950E94D1
:101FC000F00FA59F900DB49F900DA49F800D911DC3
:101FD00011240895EE0FFF1F0590F491E02D099450
:101FE000A29FB001B39FC001A39F700D811D11245A
:101FF000911DB29F700D811D1124911D089581E0E6
:0C20000090E0F8940C940410F894FFCFCA
:10200C000000400014005400000000003D01B90025
:10201C000601E400F800840100000000E902B902A6
:10202C00B1029D028E028D0200000000DA05B9009B
:04203C000D0A000089
:00000001FF
